{
  "_format": "hh-sol-artifact-1",
  "contractName": "WhiteElephantGame",
  "sourceName": "contracts/WhiteElephantGame.sol",
  "abi": [
    {
      "inputs": [
        {
          "internalType": "int256",
          "name": "minGiftValueInput",
          "type": "int256"
        },
        {
          "internalType": "int256",
          "name": "maxGiftValueInput",
          "type": "int256"
        },
        {
          "internalType": "bool",
          "name": "isPrivate",
          "type": "bool"
        },
        {
          "internalType": "uint8",
          "name": "nMaxParticipants",
          "type": "uint8"
        }
      ],
      "stateMutability": "nonpayable",
      "type": "constructor"
    },
    {
      "anonymous": false,
      "inputs": [
        {
          "indexed": true,
          "internalType": "address",
          "name": "_owner",
          "type": "address"
        },
        {
          "indexed": true,
          "internalType": "address",
          "name": "_spender",
          "type": "address"
        },
        {
          "indexed": false,
          "internalType": "uint256",
          "name": "_value",
          "type": "uint256"
        }
      ],
      "name": "Approval",
      "type": "event"
    },
    {
      "anonymous": false,
      "inputs": [
        {
          "indexed": true,
          "internalType": "address",
          "name": "_from",
          "type": "address"
        },
        {
          "indexed": true,
          "internalType": "address",
          "name": "_to",
          "type": "address"
        },
        {
          "indexed": false,
          "internalType": "uint256",
          "name": "_value",
          "type": "uint256"
        }
      ],
      "name": "Transfer",
      "type": "event"
    },
    {
      "inputs": [],
      "name": "gameStarted",
      "outputs": [
        {
          "internalType": "bool",
          "name": "",
          "type": "bool"
        }
      ],
      "stateMutability": "view",
      "type": "function"
    },
    {
      "inputs": [
        {
          "internalType": "address",
          "name": "addr",
          "type": "address"
        }
      ],
      "name": "getPrice",
      "outputs": [
        {
          "internalType": "int256",
          "name": "",
          "type": "int256"
        }
      ],
      "stateMutability": "view",
      "type": "function"
    },
    {
      "inputs": [],
      "name": "isContractActive",
      "outputs": [
        {
          "internalType": "bool",
          "name": "",
          "type": "bool"
        }
      ],
      "stateMutability": "view",
      "type": "function"
    },
    {
      "inputs": [],
      "name": "isPrivateGame",
      "outputs": [
        {
          "internalType": "bool",
          "name": "",
          "type": "bool"
        }
      ],
      "stateMutability": "view",
      "type": "function"
    },
    {
      "inputs": [
        {
          "internalType": "address",
          "name": "tokenAddress",
          "type": "address"
        },
        {
          "internalType": "uint256",
          "name": "_amount",
          "type": "uint256"
        }
      ],
      "name": "joinGameApproveAndDeposit",
      "outputs": [],
      "stateMutability": "payable",
      "type": "function"
    },
    {
      "inputs": [],
      "name": "maxGiftValue",
      "outputs": [
        {
          "internalType": "int256",
          "name": "",
          "type": "int256"
        }
      ],
      "stateMutability": "view",
      "type": "function"
    },
    {
      "inputs": [],
      "name": "maxParticipants",
      "outputs": [
        {
          "internalType": "uint8",
          "name": "",
          "type": "uint8"
        }
      ],
      "stateMutability": "view",
      "type": "function"
    },
    {
      "inputs": [],
      "name": "minGiftValue",
      "outputs": [
        {
          "internalType": "int256",
          "name": "",
          "type": "int256"
        }
      ],
      "stateMutability": "view",
      "type": "function"
    },
    {
      "inputs": [],
      "name": "numberOfParticipants",
      "outputs": [
        {
          "internalType": "uint8",
          "name": "",
          "type": "uint8"
        }
      ],
      "stateMutability": "view",
      "type": "function"
    },
    {
      "inputs": [],
      "name": "refundGift",
      "outputs": [],
      "stateMutability": "nonpayable",
      "type": "function"
    }
  ],
  "bytecode": "0x6101006040526000805462ff000060ff60b81b011916905534801561002357600080fd5b5060405161152b38038061152b833981016040819052610042916100aa565b60a09390935260c091909152600080547fff0000000000000000000000000000000000000000000000000000000000000060f89490941b939093166080523360601b60e05260ff19911515610100029190911661ffff199092169190911760011790556100fd565b600080600080608085870312156100bf578384fd5b8451935060208501519250604085015180151581146100dc578283fd5b606086015190925060ff811681146100f2578182fd5b939692955090935050565b60805160f81c60a05160c05160e05160601c6113c961016260003960005050600081816102290152818161057b01526105a20152600081816101f5015281816104e3015261050a01526000818160fc0152818161038e01526108f301526113c96000f3fe6080604052600436106100b15760003560e01c80637417040e11610069578063ab83dc311161004e578063ab83dc31146101ce578063b5a2f574146101e3578063de82fd861461021757600080fd5b80637417040e146101945780638f5949f9146101b457600080fd5b806341976e091161009a57806341976e09146101305780635e123ce41461015e5780636f3b6de11461017f57600080fd5b80631d907bb5146100b657806324924bf7146100ea575b600080fd5b3480156100c257600080fd5b506000546100d590610100900460ff1681565b60405190151581526020015b60405180910390f35b3480156100f657600080fd5b5061011e7f000000000000000000000000000000000000000000000000000000000000000081565b60405160ff90911681526020016100e1565b34801561013c57600080fd5b5061015061014b3660046111ff565b61024b565b6040519081526020016100e1565b34801561016a57600080fd5b506000546100d590600160b81b900460ff1681565b61019261018d366004611219565b6102d1565b005b3480156101a057600080fd5b5060005461011e9062010000900460ff1681565b3480156101c057600080fd5b506000546100d59060ff1681565b3480156101da57600080fd5b50610192610971565b3480156101ef57600080fd5b506101507f000000000000000000000000000000000000000000000000000000000000000081565b34801561022357600080fd5b506101507f000000000000000000000000000000000000000000000000000000000000000081565b6000808290506000816001600160a01b031663feaf968c6040518163ffffffff1660e01b815260040160a06040518083038186803b15801561028c57600080fd5b505afa1580156102a0573d6000803e3d6000fd5b505050506040513d601f19601f820116820180604052508101906102c4919061127a565b5091979650505050505050565b60005460ff16151560011461032d5760405162461bcd60e51b815260206004820152601460248201527f436f6e7472616374206e6f74206163746976652e00000000000000000000000060448201526064015b60405180910390fd5b600054600160b81b900460ff16156103875760405162461bcd60e51b815260206004820152601560248201527f47616d6520616c726561647920737461727465642e00000000000000000000006044820152606401610324565b60005460ff7f000000000000000000000000000000000000000000000000000000000000000081166201000090920416106104045760405162461bcd60e51b815260206004820152601060248201527f5468652067616d652069732066756c6c000000000000000000000000000000006044820152606401610324565b61040d33610b52565b1561045a5760405162461bcd60e51b815260206004820152601d60248201527f596f752061726520616c72656164792070617274696369706174696e670000006044820152606401610324565b6104986040518060400160405280601981526020017f3a3a3a70617469636970616e74206e6f74206578697374732e00000000000000815250610b8d565b6104a28282610be5565b506000805476ffffffffffffffffffffffffffffffffffffffff000000191663010000006001600160a01b038516021781556104dd8361024b565b905060007f00000000000000000000000000000000000000000000000000000000000000001315610577577f000000000000000000000000000000000000000000000000000000000000000081136105775760405162461bcd60e51b815260206004820152601a60248201527f596f757220676966742076616c756520697320746f6f206c6f770000000000006044820152606401610324565b60007f0000000000000000000000000000000000000000000000000000000000000000131561060f577f0000000000000000000000000000000000000000000000000000000000000000811261060f5760405162461bcd60e51b815260206004820152601b60248201527f596f757220676966742076616c756520697320746f6f206869676800000000006044820152606401610324565b6000546040516323b872dd60e01b815233600482018190523060248301819052604483018690529092909163010000009091046001600160a01b0316906323b872dd90606401602060405180830381600087803b15801561066f57600080fd5b505af1158015610683573d6000803e3d6000fd5b505050506040513d601f19601f820116820180604052508101906106a79190611242565b506040518481526001600160a01b0382169033907fddf252ad1be2c89b69c2b068fc378daa952ba7f163c4a11628f55a4df523b3ef9060200160405180910390a36040805180820182526001600160a01b038716815260208082018790528251608081018452600080825281830181905281850181905284518086019095528085529184019190915260608101929092529033604080830191825260018084526020808501828152606086018781526002805480860182556000828152895160039092027f405787fa12a823e0f2b7631cc41b3ba8828b3321ca811111fa75cd3aa3bb5ace8101805487518c516001600160a01b03908116620100008181027fffffffffffffffffffff0000000000000000000000000000000000000000ffff94151561010090810261ff00199b15158c1661ffff1998891617178616919091179096558a5180517f405787fa12a823e0f2b7631cc41b3ba8828b3321ca811111fa75cd3aa3bb5acf890180549186167fffffffffffffffffffffffff0000000000000000000000000000000000000000928316179055908e01517f405787fa12a823e0f2b7631cc41b3ba8828b3321ca811111fa75cd3aa3bb5ad0909801979097559087528c8c529c86208f5181549b519f5183168f029f151590950294151590971699909216989098179190911790961699909917825592518051968201805497909516969098169590951790925594909101519181019190915582549190910460ff1691906108d883611366565b91906101000a81548160ff021916908360ff160217905550507f000000000000000000000000000000000000000000000000000000000000000060ff166001800180549050141561096857600080547fffffffffffffffff00ffffffffffffffffffffffffffffffffffffffffffffff16600160b81b179055610959610cde565b6109686000805460ff19169055565b50505050505050565b60005460ff1615156001146109c85760405162461bcd60e51b815260206004820152601460248201527f436f6e7472616374206e6f74206163746976652e0000000000000000000000006044820152606401610324565b600054600160b81b900460ff1615610a225760405162461bcd60e51b815260206004820152601560248201527f47616d6520616c726561647920737461727465642e00000000000000000000006044820152606401610324565b610a2b33610b52565b610a775760405162461bcd60e51b815260206004820152601a60248201527f596f7520617265206e6f742070617274696369706174696e672e0000000000006044820152606401610324565b336000908152600160208181526040928390208351608081018552815460ff808216151583526101008204161515828501526201000090046001600160a01b03908116828701528551808701909652828501541685526002909101549184019190915260608101929092528151151514610b335760405162461bcd60e51b815260206004820152601360248201527f596f752068617665206e6f7420676966746564000000000000000000000000006044820152606401610324565b606081015180516040830151602090920151610b4f9290610ecd565b50565b6001600160a01b0381166000908152600160208190526040822054610100900460ff1615151415610b84576001610b87565b60005b92915050565b610b4f81604051602401610ba191906112c9565b60408051601f198184030181529190526020810180517bffffffffffffffffffffffffffffffffffffffffffffffffffffffff1663104c13eb60e21b17905261108a565b6000805476ffffffffffffffffffffffffffffffffffffffff000000191663010000006001600160a01b03851602178155604051828152309033907f8c5be1e5ebec7d5bd14f71427d1e84f3dd0314c0f7b2291e5b200ac8c7c3b9259060200160405180910390a360005460405163095ea7b360e01b81523060048201526024810184905263010000009091046001600160a01b03169063095ea7b390604401602060405180830381600087803b158015610c9f57600080fd5b505af1158015610cb3573d6000803e3d6000fd5b505050506040513d601f19601f82011682018060405250810190610cd79190611242565b9392505050565b60025460009067ffffffffffffffff811115610d0a57634e487b7160e01b600052604160045260246000fd5b604051908082528060200260200182016040528015610d4f57816020015b6040805180820190915260008082526020820152815260200190600190039081610d285790505b50905060005b8151811015610df7576002805482908110610d8057634e487b7160e01b600052603260045260246000fd5b6000918252602091829020604080518082019091526003929092020160018101546001600160a01b0316825260020154918101919091528251839083908110610dd957634e487b7160e01b600052603260045260246000fd5b60200260200101819052508080610def9061134b565b915050610d55565b50610e01816110ab565b905060005b8151811015610ec957610eb7828281518110610e3257634e487b7160e01b600052603260045260246000fd5b602002602001015160000151600180018381548110610e6157634e487b7160e01b600052603260045260246000fd5b906000526020600020906003020160000160029054906101000a90046001600160a01b0316848481518110610ea657634e487b7160e01b600052603260045260246000fd5b602002602001015160200151610ecd565b80610ec18161134b565b915050610e06565b5050565b6000805476ffffffffffffffffffffffffffffffffffffffff000000191663010000006001600160a01b038681168202929092178084556040516370a0823160e01b8152306004820152919004909116906370a082319060240160206040518083038186803b158015610f3f57600080fd5b505afa158015610f53573d6000803e3d6000fd5b505050506040513d601f19601f82011682018060405250810190610f779190611262565b905081811015610fef5760405162461bcd60e51b815260206004820152603760248201527f547279696e6720746f207472616e73666572206d6f7265207468616e2074686560448201527f20736d61727420636f6e74726163742062616c616e63650000000000000000006064820152608401610324565b6000546040516323b872dd60e01b81523060048201526001600160a01b038581166024830152604482018490526301000000909204909116906323b872dd90606401602060405180830381600087803b15801561104b57600080fd5b505af115801561105f573d6000803e3d6000fd5b505050506040513d601f19601f820116820180604052508101906110839190611242565b5050505050565b80516a636f6e736f6c652e6c6f67602083016000808483855afa5050505050565b606060005b82518110156111c25760008184516110c89190611334565b60408051426020820152016040516020818303038152906040528051906020012060001c6110f69190611386565b611100908361131c565b9050600084828151811061112457634e487b7160e01b600052603260045260246000fd5b6020026020010151905084838151811061114e57634e487b7160e01b600052603260045260246000fd5b602002602001015185838151811061117657634e487b7160e01b600052603260045260246000fd5b6020026020010181905250808584815181106111a257634e487b7160e01b600052603260045260246000fd5b6020026020010181905250505080806111ba9061134b565b9150506110b0565b5090919050565b80356001600160a01b03811681146111e057600080fd5b919050565b805169ffffffffffffffffffff811681146111e057600080fd5b600060208284031215611210578081fd5b610cd7826111c9565b6000806040838503121561122b578081fd5b611234836111c9565b946020939093013593505050565b600060208284031215611253578081fd5b81518015158114610cd7578182fd5b600060208284031215611273578081fd5b5051919050565b600080600080600060a08688031215611291578081fd5b61129a866111e5565b94506020860151935060408601519250606086015191506112bd608087016111e5565b90509295509295909350565b6000602080835283518082850152825b818110156112f5578581018301518582016040015282016112d9565b818111156113065783604083870101525b50601f01601f1916929092016040019392505050565b6000821982111561132f5761132f6113a6565b500190565b600082821015611346576113466113a6565b500390565b600060001982141561135f5761135f6113a6565b5060010190565b600060ff821660ff81141561137d5761137d6113a6565b60010192915050565b6000826113a157634e487b7160e01b81526012600452602481fd5b500690565b634e487b7160e01b600052601160045260246000fdfea164736f6c6343000804000a",
  "linkReferences": {},
  "deployedLinkReferences": {}
}